{
  "_format": "hh-sol-artifact-1",
  "contractName": "FishingGameNFT",
  "sourceName": "contracts/FishingGameNFT.sol",
  "abi": [
    {
      "inputs": [],
      "stateMutability": "nonpayable",
      "type": "constructor"
    },
    {
      "anonymous": false,
      "inputs": [
        {
          "indexed": true,
          "internalType": "address",
          "name": "owner",
          "type": "address"
        },
        {
          "indexed": true,
          "internalType": "address",
          "name": "approved",
          "type": "address"
        },
        {
          "indexed": true,
          "internalType": "uint256",
          "name": "tokenId",
          "type": "uint256"
        }
      ],
      "name": "Approval",
      "type": "event"
    },
    {
      "anonymous": false,
      "inputs": [
        {
          "indexed": true,
          "internalType": "address",
          "name": "owner",
          "type": "address"
        },
        {
          "indexed": true,
          "internalType": "address",
          "name": "operator",
          "type": "address"
        },
        {
          "indexed": false,
          "internalType": "bool",
          "name": "approved",
          "type": "bool"
        }
      ],
      "name": "ApprovalForAll",
      "type": "event"
    },
    {
      "anonymous": false,
      "inputs": [
        {
          "indexed": true,
          "internalType": "address",
          "name": "player",
          "type": "address"
        },
        {
          "indexed": true,
          "internalType": "uint256",
          "name": "tokenId",
          "type": "uint256"
        },
        {
          "indexed": false,
          "internalType": "enum FishingGameNFT.FishType",
          "name": "fishType",
          "type": "uint8"
        },
        {
          "indexed": false,
          "internalType": "uint256",
          "name": "weight",
          "type": "uint256"
        }
      ],
      "name": "FishCaught",
      "type": "event"
    },
    {
      "anonymous": false,
      "inputs": [
        {
          "indexed": true,
          "internalType": "address",
          "name": "previousOwner",
          "type": "address"
        },
        {
          "indexed": true,
          "internalType": "address",
          "name": "newOwner",
          "type": "address"
        }
      ],
      "name": "OwnershipTransferred",
      "type": "event"
    },
    {
      "anonymous": false,
      "inputs": [
        {
          "indexed": true,
          "internalType": "address",
          "name": "from",
          "type": "address"
        },
        {
          "indexed": true,
          "internalType": "address",
          "name": "to",
          "type": "address"
        },
        {
          "indexed": true,
          "internalType": "uint256",
          "name": "tokenId",
          "type": "uint256"
        }
      ],
      "name": "Transfer",
      "type": "event"
    },
    {
      "inputs": [
        {
          "internalType": "address",
          "name": "to",
          "type": "address"
        },
        {
          "internalType": "uint256",
          "name": "tokenId",
          "type": "uint256"
        }
      ],
      "name": "approve",
      "outputs": [],
      "stateMutability": "nonpayable",
      "type": "function"
    },
    {
      "inputs": [
        {
          "internalType": "address",
          "name": "owner",
          "type": "address"
        }
      ],
      "name": "balanceOf",
      "outputs": [
        {
          "internalType": "uint256",
          "name": "",
          "type": "uint256"
        }
      ],
      "stateMutability": "view",
      "type": "function"
    },
    {
      "inputs": [
        {
          "internalType": "uint256",
          "name": "tokenId",
          "type": "uint256"
        }
      ],
      "name": "getApproved",
      "outputs": [
        {
          "internalType": "address",
          "name": "",
          "type": "address"
        }
      ],
      "stateMutability": "view",
      "type": "function"
    },
    {
      "inputs": [
        {
          "internalType": "address",
          "name": "owner",
          "type": "address"
        }
      ],
      "name": "getFishByOwner",
      "outputs": [
        {
          "internalType": "uint256[]",
          "name": "",
          "type": "uint256[]"
        }
      ],
      "stateMutability": "view",
      "type": "function"
    },
    {
      "inputs": [
        {
          "internalType": "uint256",
          "name": "tokenId",
          "type": "uint256"
        }
      ],
      "name": "getFishCharacteristics",
      "outputs": [
        {
          "components": [
            {
              "internalType": "enum FishingGameNFT.FishType",
              "name": "fishType",
              "type": "uint8"
            },
            {
              "internalType": "uint256",
              "name": "weight",
              "type": "uint256"
            },
            {
              "internalType": "uint256",
              "name": "length",
              "type": "uint256"
            },
            {
              "internalType": "uint256",
              "name": "timestamp",
              "type": "uint256"
            },
            {
              "internalType": "string",
              "name": "location",
              "type": "string"
            }
          ],
          "internalType": "struct FishingGameNFT.FishCharacteristics",
          "name": "",
          "type": "tuple"
        }
      ],
      "stateMutability": "view",
      "type": "function"
    },
    {
      "inputs": [
        {
          "internalType": "address",
          "name": "owner",
          "type": "address"
        },
        {
          "internalType": "address",
          "name": "operator",
          "type": "address"
        }
      ],
      "name": "isApprovedForAll",
      "outputs": [
        {
          "internalType": "bool",
          "name": "",
          "type": "bool"
        }
      ],
      "stateMutability": "view",
      "type": "function"
    },
    {
      "inputs": [],
      "name": "name",
      "outputs": [
        {
          "internalType": "string",
          "name": "",
          "type": "string"
        }
      ],
      "stateMutability": "view",
      "type": "function"
    },
    {
      "inputs": [],
      "name": "owner",
      "outputs": [
        {
          "internalType": "address",
          "name": "",
          "type": "address"
        }
      ],
      "stateMutability": "view",
      "type": "function"
    },
    {
      "inputs": [
        {
          "internalType": "uint256",
          "name": "tokenId",
          "type": "uint256"
        }
      ],
      "name": "ownerOf",
      "outputs": [
        {
          "internalType": "address",
          "name": "",
          "type": "address"
        }
      ],
      "stateMutability": "view",
      "type": "function"
    },
    {
      "inputs": [],
      "name": "renounceOwnership",
      "outputs": [],
      "stateMutability": "nonpayable",
      "type": "function"
    },
    {
      "inputs": [
        {
          "internalType": "address",
          "name": "from",
          "type": "address"
        },
        {
          "internalType": "address",
          "name": "to",
          "type": "address"
        },
        {
          "internalType": "uint256",
          "name": "tokenId",
          "type": "uint256"
        }
      ],
      "name": "safeTransferFrom",
      "outputs": [],
      "stateMutability": "nonpayable",
      "type": "function"
    },
    {
      "inputs": [
        {
          "internalType": "address",
          "name": "from",
          "type": "address"
        },
        {
          "internalType": "address",
          "name": "to",
          "type": "address"
        },
        {
          "internalType": "uint256",
          "name": "tokenId",
          "type": "uint256"
        },
        {
          "internalType": "bytes",
          "name": "data",
          "type": "bytes"
        }
      ],
      "name": "safeTransferFrom",
      "outputs": [],
      "stateMutability": "nonpayable",
      "type": "function"
    },
    {
      "inputs": [
        {
          "internalType": "address",
          "name": "operator",
          "type": "address"
        },
        {
          "internalType": "bool",
          "name": "approved",
          "type": "bool"
        }
      ],
      "name": "setApprovalForAll",
      "outputs": [],
      "stateMutability": "nonpayable",
      "type": "function"
    },
    {
      "inputs": [
        {
          "internalType": "uint256",
          "name": "tokenId",
          "type": "uint256"
        },
        {
          "internalType": "string",
          "name": "_tokenURI",
          "type": "string"
        }
      ],
      "name": "setTokenURI",
      "outputs": [],
      "stateMutability": "nonpayable",
      "type": "function"
    },
    {
      "inputs": [
        {
          "internalType": "string",
          "name": "location",
          "type": "string"
        }
      ],
      "name": "startFishing",
      "outputs": [
        {
          "internalType": "uint256",
          "name": "tokenId",
          "type": "uint256"
        }
      ],
      "stateMutability": "nonpayable",
      "type": "function"
    },
    {
      "inputs": [
        {
          "internalType": "bytes4",
          "name": "interfaceId",
          "type": "bytes4"
        }
      ],
      "name": "supportsInterface",
      "outputs": [
        {
          "internalType": "bool",
          "name": "",
          "type": "bool"
        }
      ],
      "stateMutability": "view",
      "type": "function"
    },
    {
      "inputs": [],
      "name": "symbol",
      "outputs": [
        {
          "internalType": "string",
          "name": "",
          "type": "string"
        }
      ],
      "stateMutability": "view",
      "type": "function"
    },
    {
      "inputs": [
        {
          "internalType": "uint256",
          "name": "index",
          "type": "uint256"
        }
      ],
      "name": "tokenByIndex",
      "outputs": [
        {
          "internalType": "uint256",
          "name": "",
          "type": "uint256"
        }
      ],
      "stateMutability": "view",
      "type": "function"
    },
    {
      "inputs": [
        {
          "internalType": "address",
          "name": "owner",
          "type": "address"
        },
        {
          "internalType": "uint256",
          "name": "index",
          "type": "uint256"
        }
      ],
      "name": "tokenOfOwnerByIndex",
      "outputs": [
        {
          "internalType": "uint256",
          "name": "",
          "type": "uint256"
        }
      ],
      "stateMutability": "view",
      "type": "function"
    },
    {
      "inputs": [
        {
          "internalType": "uint256",
          "name": "tokenId",
          "type": "uint256"
        }
      ],
      "name": "tokenURI",
      "outputs": [
        {
          "internalType": "string",
          "name": "",
          "type": "string"
        }
      ],
      "stateMutability": "view",
      "type": "function"
    },
    {
      "inputs": [],
      "name": "totalSupply",
      "outputs": [
        {
          "internalType": "uint256",
          "name": "",
          "type": "uint256"
        }
      ],
      "stateMutability": "view",
      "type": "function"
    },
    {
      "inputs": [
        {
          "internalType": "address",
          "name": "from",
          "type": "address"
        },
        {
          "internalType": "address",
          "name": "to",
          "type": "address"
        },
        {
          "internalType": "uint256",
          "name": "tokenId",
          "type": "uint256"
        }
      ],
      "name": "transferFrom",
      "outputs": [],
      "stateMutability": "nonpayable",
      "type": "function"
    },
    {
      "inputs": [
        {
          "internalType": "address",
          "name": "newOwner",
          "type": "address"
        }
      ],
      "name": "transferOwnership",
      "outputs": [],
      "stateMutability": "nonpayable",
      "type": "function"
    }
  ],
  "bytecode": "0x60806040523480156200001157600080fd5b506040518060400160405280601081526020017f526574726f46697368696e6747616d65000000000000000000000000000000008152506040518060400160405280600481526020017f464953480000000000000000000000000000000000000000000000000000000081525081600090816200008f919062000412565b508060019081620000a1919062000412565b505050620000c4620000b8620000ca60201b60201c565b620000d260201b60201c565b620004f9565b600033905090565b6000600a60009054906101000a900473ffffffffffffffffffffffffffffffffffffffff16905081600a60006101000a81548173ffffffffffffffffffffffffffffffffffffffff021916908373ffffffffffffffffffffffffffffffffffffffff1602179055508173ffffffffffffffffffffffffffffffffffffffff168173ffffffffffffffffffffffffffffffffffffffff167f8be0079c531659141344cd1fd0a4f28419497f9722a3daafe3b4186f6b6457e060405160405180910390a35050565b600081519050919050565b7f4e487b7100000000000000000000000000000000000000000000000000000000600052604160045260246000fd5b7f4e487b7100000000000000000000000000000000000000000000000000000000600052602260045260246000fd5b600060028204905060018216806200021a57607f821691505b60208210810362000230576200022f620001d2565b5b50919050565b60008190508160005260206000209050919050565b60006020601f8301049050919050565b600082821b905092915050565b6000600883026200029a7fffffffffffffffffffffffffffffffffffffffffffffffffffffffffffffffff826200025b565b620002a686836200025b565b95508019841693508086168417925050509392505050565b6000819050919050565b6000819050919050565b6000620002f3620002ed620002e784620002be565b620002c8565b620002be565b9050919050565b6000819050919050565b6200030f83620002d2565b620003276200031e82620002fa565b84845462000268565b825550505050565b600090565b6200033e6200032f565b6200034b81848462000304565b505050565b5b8181101562000373576200036760008262000334565b60018101905062000351565b5050565b601f821115620003c2576200038c8162000236565b62000397846200024b565b81016020851015620003a7578190505b620003bf620003b6856200024b565b83018262000350565b50505b505050565b600082821c905092915050565b6000620003e760001984600802620003c7565b1980831691505092915050565b6000620004028383620003d4565b9150826002028217905092915050565b6200041d8262000198565b67ffffffffffffffff811115620004395762000438620001a3565b5b62000445825462000201565b6200045282828562000377565b600060209050601f8311600181146200048a576000841562000475578287015190505b620004818582620003f4565b865550620004f1565b601f1984166200049a8662000236565b60005b82811015620004c4578489015182556001820191506020850194506020810190506200049d565b86831015620004e45784890151620004e0601f891682620003d4565b8355505b6001600288020188555050505b505050505050565b613e7d80620005096000396000f3fe608060405234801561001057600080fd5b506004361061014d5760003560e01c80636352211e116100c3578063a22cb4651161007c578063a22cb465146103c4578063b88d4fde146103e0578063c87b56dd146103fc578063e985e9c51461042c578063f2fde38b1461045c578063fd2480f8146104785761014d565b80636352211e146102ee57806370a082311461031e578063715018a61461034e57806389b9d41b146103585780638da5cb5b1461038857806395d89b41146103a65761014d565b8063162094c411610115578063162094c41461021c57806318160ddd1461023857806323b872dd146102565780632f745c591461027257806342842e0e146102a25780634f6ccce7146102be5761014d565b806301ffc9a71461015257806306fdde0314610182578063081812fc146101a0578063095ea7b3146101d05780630e8f4f7d146101ec575b600080fd5b61016c6004803603810190610167919061250d565b6104a8565b6040516101799190612555565b60405180910390f35b61018a610522565b6040516101979190612600565b60405180910390f35b6101ba60048036038101906101b59190612658565b6105b4565b6040516101c791906126c6565b60405180910390f35b6101ea60048036038101906101e5919061270d565b6105fa565b005b61020660048036038101906102019190612658565b610711565b6040516102139190612893565b60405180910390f35b610236600480360381019061023191906129ea565b610871565b005b6102406108e6565b60405161024d9190612a55565b60405180910390f35b610270600480360381019061026b9190612a70565b6108f3565b005b61028c6004803603810190610287919061270d565b610953565b6040516102999190612a55565b60405180910390f35b6102bc60048036038101906102b79190612a70565b6109f8565b005b6102d860048036038101906102d39190612658565b610a18565b6040516102e59190612a55565b60405180910390f35b61030860048036038101906103039190612658565b610a89565b60405161031591906126c6565b60405180910390f35b61033860048036038101906103339190612ac3565b610b0f565b6040516103459190612a55565b60405180910390f35b610356610bc6565b005b610372600480360381019061036d9190612ac3565b610bda565b60405161037f9190612b9f565b60405180910390f35b610390610c88565b60405161039d91906126c6565b60405180910390f35b6103ae610cb2565b6040516103bb9190612600565b60405180910390f35b6103de60048036038101906103d99190612bed565b610d44565b005b6103fa60048036038101906103f59190612cce565b610d5a565b005b61041660048036038101906104119190612658565b610dbc565b6040516104239190612600565b60405180910390f35b61044660048036038101906104419190612d51565b610eaf565b6040516104539190612555565b60405180910390f35b61047660048036038101906104719190612ac3565b610f43565b005b610492600480360381019061048d9190612d91565b610fc6565b60405161049f9190612a55565b60405180910390f35b60007f780e9d63000000000000000000000000000000000000000000000000000000007bffffffffffffffffffffffffffffffffffffffffffffffffffffffff1916827bffffffffffffffffffffffffffffffffffffffffffffffffffffffff1916148061051b575061051a826111e2565b5b9050919050565b60606000805461053190612e09565b80601f016020809104026020016040519081016040528092919081815260200182805461055d90612e09565b80156105aa5780601f1061057f576101008083540402835291602001916105aa565b820191906000526020600020905b81548152906001019060200180831161058d57829003601f168201915b5050505050905090565b60006105bf826112c4565b6004600083815260200190815260200160002060009054906101000a900473ffffffffffffffffffffffffffffffffffffffff169050919050565b600061060582610a89565b90508073ffffffffffffffffffffffffffffffffffffffff168373ffffffffffffffffffffffffffffffffffffffff1603610675576040517f08c379a000000000000000000000000000000000000000000000000000000000815260040161066c90612eac565b60405180910390fd5b8073ffffffffffffffffffffffffffffffffffffffff1661069461130f565b73ffffffffffffffffffffffffffffffffffffffff1614806106c357506106c2816106bd61130f565b610eaf565b5b610702576040517f08c379a00000000000000000000000000000000000000000000000000000000081526004016106f990612f3e565b60405180910390fd5b61070c8383611317565b505050565b610719612460565b610722826113d0565b610761576040517f08c379a000000000000000000000000000000000000000000000000000000000815260040161075890612faa565b60405180910390fd5b600d60008381526020019081526020016000206040518060a00160405290816000820160009054906101000a900460ff1660038111156107a4576107a361274d565b5b60038111156107b6576107b561274d565b5b81526020016001820154815260200160028201548152602001600382015481526020016004820180546107e890612e09565b80601f016020809104026020016040519081016040528092919081815260200182805461081490612e09565b80156108615780601f1061083657610100808354040283529160200191610861565b820191906000526020600020905b81548152906001019060200180831161084457829003601f168201915b5050505050815250509050919050565b610879611411565b610882826113d0565b6108c1576040517f08c379a00000000000000000000000000000000000000000000000000000000081526004016108b890613016565b60405180910390fd5b80600c600084815260200190815260200160002090816108e191906131e2565b505050565b6000600880549050905090565b6109046108fe61130f565b8261148f565b610943576040517f08c379a000000000000000000000000000000000000000000000000000000000815260040161093a90613326565b60405180910390fd5b61094e838383611524565b505050565b600061095e83610b0f565b821061099f576040517f08c379a0000000000000000000000000000000000000000000000000000000008152600401610996906133b8565b60405180910390fd5b600660008473ffffffffffffffffffffffffffffffffffffffff1673ffffffffffffffffffffffffffffffffffffffff168152602001908152602001600020600083815260200190815260200160002054905092915050565b610a1383838360405180602001604052806000815250610d5a565b505050565b6000610a226108e6565b8210610a63576040517f08c379a0000000000000000000000000000000000000000000000000000000008152600401610a5a9061344a565b60405180910390fd5b60088281548110610a7757610a7661346a565b5b90600052602060002001549050919050565b600080610a958361181d565b9050600073ffffffffffffffffffffffffffffffffffffffff168173ffffffffffffffffffffffffffffffffffffffff1603610b06576040517f08c379a0000000000000000000000000000000000000000000000000000000008152600401610afd906134e5565b60405180910390fd5b80915050919050565b60008073ffffffffffffffffffffffffffffffffffffffff168273ffffffffffffffffffffffffffffffffffffffff1603610b7f576040517f08c379a0000000000000000000000000000000000000000000000000000000008152600401610b7690613577565b60405180910390fd5b600360008373ffffffffffffffffffffffffffffffffffffffff1673ffffffffffffffffffffffffffffffffffffffff168152602001908152602001600020549050919050565b610bce611411565b610bd8600061185a565b565b60606000610be783610b0f565b905060008167ffffffffffffffff811115610c0557610c046128bf565b5b604051908082528060200260200182016040528015610c335781602001602082028036833780820191505090505b50905060005b82811015610c7d57610c4b8582610953565b828281518110610c5e57610c5d61346a565b5b6020026020010181815250508080610c75906135c6565b915050610c39565b508092505050919050565b6000600a60009054906101000a900473ffffffffffffffffffffffffffffffffffffffff16905090565b606060018054610cc190612e09565b80601f0160208091040260200160405190810160405280929190818152602001828054610ced90612e09565b8015610d3a5780601f10610d0f57610100808354040283529160200191610d3a565b820191906000526020600020905b815481529060010190602001808311610d1d57829003601f168201915b5050505050905090565b610d56610d4f61130f565b8383611920565b5050565b610d6b610d6561130f565b8361148f565b610daa576040517f08c379a0000000000000000000000000000000000000000000000000000000008152600401610da190613326565b60405180910390fd5b610db684848484611a8c565b50505050565b6060610dc7826113d0565b610e06576040517f08c379a0000000000000000000000000000000000000000000000000000000008152600401610dfd9061365a565b60405180910390fd5b6000600c60008481526020019081526020016000208054610e2690612e09565b80601f0160208091040260200160405190810160405280929190818152602001828054610e5290612e09565b8015610e9f5780601f10610e7457610100808354040283529160200191610e9f565b820191906000526020600020905b815481529060010190602001808311610e8257829003601f168201915b5050505050905080915050919050565b6000600560008473ffffffffffffffffffffffffffffffffffffffff1673ffffffffffffffffffffffffffffffffffffffff16815260200190815260200160002060008373ffffffffffffffffffffffffffffffffffffffff1673ffffffffffffffffffffffffffffffffffffffff16815260200190815260200160002060009054906101000a900460ff16905092915050565b610f4b611411565b600073ffffffffffffffffffffffffffffffffffffffff168173ffffffffffffffffffffffffffffffffffffffff1603610fba576040517f08c379a0000000000000000000000000000000000000000000000000000000008152600401610fb1906136ec565b60405180910390fd5b610fc38161185a565b50565b600080610fd33384611ae8565b90506000606482610fe4919061373b565b90506000603c821015610ffa5760009050611025565b605582101561100c5760019050611024565b605f82101561101e5760029050611023565b600390505b5b5b60006103e8608085901c611039919061373b565b905060006064604086901c61104e919061373b565b9050600060fa8460038111156110675761106661274d565b5b611071919061376c565b8361107c91906137ae565b9050600060148560038111156110955761109461274d565b5b61109f919061376c565b836110aa91906137ae565b905060006040518060a001604052808760038111156110cc576110cb61274d565b5b81526020018481526020018381526020014281526020018b81525090506110f3600b611b22565b6110fd600b611b38565b9850611109338a611b46565b80600d60008b815260200190815260200160002060008201518160000160006101000a81548160ff021916908360038111156111485761114761274d565b5b0217905550602082015181600101556040820151816002015560608201518160030155608082015181600401908161118091906131e2565b50905050883373ffffffffffffffffffffffffffffffffffffffff167f96ad55a3dd6b12d25424e1e60360f795d083c8ffea47ac014649278e94e3680d88866040516111cd9291906137f1565b60405180910390a35050505050505050919050565b60007f80ac58cd000000000000000000000000000000000000000000000000000000007bffffffffffffffffffffffffffffffffffffffffffffffffffffffff1916827bffffffffffffffffffffffffffffffffffffffffffffffffffffffff191614806112ad57507f5b5e139f000000000000000000000000000000000000000000000000000000007bffffffffffffffffffffffffffffffffffffffffffffffffffffffff1916827bffffffffffffffffffffffffffffffffffffffffffffffffffffffff1916145b806112bd57506112bc82611b64565b5b9050919050565b6112cd816113d0565b61130c576040517f08c379a0000000000000000000000000000000000000000000000000000000008152600401611303906134e5565b60405180910390fd5b50565b600033905090565b816004600083815260200190815260200160002060006101000a81548173ffffffffffffffffffffffffffffffffffffffff021916908373ffffffffffffffffffffffffffffffffffffffff160217905550808273ffffffffffffffffffffffffffffffffffffffff1661138a83610a89565b73ffffffffffffffffffffffffffffffffffffffff167f8c5be1e5ebec7d5bd14f71427d1e84f3dd0314c0f7b2291e5b200ac8c7c3b92560405160405180910390a45050565b60008073ffffffffffffffffffffffffffffffffffffffff166113f28361181d565b73ffffffffffffffffffffffffffffffffffffffff1614159050919050565b61141961130f565b73ffffffffffffffffffffffffffffffffffffffff16611437610c88565b73ffffffffffffffffffffffffffffffffffffffff161461148d576040517f08c379a000000000000000000000000000000000000000000000000000000000815260040161148490613866565b60405180910390fd5b565b60008061149b83610a89565b90508073ffffffffffffffffffffffffffffffffffffffff168473ffffffffffffffffffffffffffffffffffffffff1614806114dd57506114dc8185610eaf565b5b8061151b57508373ffffffffffffffffffffffffffffffffffffffff16611503846105b4565b73ffffffffffffffffffffffffffffffffffffffff16145b91505092915050565b8273ffffffffffffffffffffffffffffffffffffffff1661154482610a89565b73ffffffffffffffffffffffffffffffffffffffff161461159a576040517f08c379a0000000000000000000000000000000000000000000000000000000008152600401611591906138f8565b60405180910390fd5b600073ffffffffffffffffffffffffffffffffffffffff168273ffffffffffffffffffffffffffffffffffffffff1603611609576040517f08c379a00000000000000000000000000000000000000000000000000000000081526004016116009061398a565b60405180910390fd5b6116168383836001611bce565b8273ffffffffffffffffffffffffffffffffffffffff1661163682610a89565b73ffffffffffffffffffffffffffffffffffffffff161461168c576040517f08c379a0000000000000000000000000000000000000000000000000000000008152600401611683906138f8565b60405180910390fd5b6004600082815260200190815260200160002060006101000a81549073ffffffffffffffffffffffffffffffffffffffff02191690556001600360008573ffffffffffffffffffffffffffffffffffffffff1673ffffffffffffffffffffffffffffffffffffffff168152602001908152602001600020600082825403925050819055506001600360008473ffffffffffffffffffffffffffffffffffffffff1673ffffffffffffffffffffffffffffffffffffffff16815260200190815260200160002060008282540192505081905550816002600083815260200190815260200160002060006101000a81548173ffffffffffffffffffffffffffffffffffffffff021916908373ffffffffffffffffffffffffffffffffffffffff160217905550808273ffffffffffffffffffffffffffffffffffffffff168473ffffffffffffffffffffffffffffffffffffffff167fddf252ad1be2c89b69c2b068fc378daa952ba7f163c4a11628f55a4df523b3ef60405160405180910390a46118188383836001611d2c565b505050565b60006002600083815260200190815260200160002060009054906101000a900473ffffffffffffffffffffffffffffffffffffffff169050919050565b6000600a60009054906101000a900473ffffffffffffffffffffffffffffffffffffffff16905081600a60006101000a81548173ffffffffffffffffffffffffffffffffffffffff021916908373ffffffffffffffffffffffffffffffffffffffff1602179055508173ffffffffffffffffffffffffffffffffffffffff168173ffffffffffffffffffffffffffffffffffffffff167f8be0079c531659141344cd1fd0a4f28419497f9722a3daafe3b4186f6b6457e060405160405180910390a35050565b8173ffffffffffffffffffffffffffffffffffffffff168373ffffffffffffffffffffffffffffffffffffffff160361198e576040517f08c379a0000000000000000000000000000000000000000000000000000000008152600401611985906139f6565b60405180910390fd5b80600560008573ffffffffffffffffffffffffffffffffffffffff1673ffffffffffffffffffffffffffffffffffffffff16815260200190815260200160002060008473ffffffffffffffffffffffffffffffffffffffff1673ffffffffffffffffffffffffffffffffffffffff16815260200190815260200160002060006101000a81548160ff0219169083151502179055508173ffffffffffffffffffffffffffffffffffffffff168373ffffffffffffffffffffffffffffffffffffffff167f17307eab39ab6107e8899845ad3d59bd9653f200f220920489ca2b5937696c3183604051611a7f9190612555565b60405180910390a3505050565b611a97848484611524565b611aa384848484611d32565b611ae2576040517f08c379a0000000000000000000000000000000000000000000000000000000008152600401611ad990613a88565b60405180910390fd5b50505050565b600042448484604051602001611b019493929190613b4d565b6040516020818303038152906040528051906020012060001c905092915050565b6001816000016000828254019250508190555050565b600081600001549050919050565b611b60828260405180602001604052806000815250611eb9565b5050565b60007f01ffc9a7000000000000000000000000000000000000000000000000000000007bffffffffffffffffffffffffffffffffffffffffffffffffffffffff1916827bffffffffffffffffffffffffffffffffffffffffffffffffffffffff1916149050919050565b611bda84848484611f14565b6001811115611c1e576040517f08c379a0000000000000000000000000000000000000000000000000000000008152600401611c1590613c09565b60405180910390fd5b6000829050600073ffffffffffffffffffffffffffffffffffffffff168573ffffffffffffffffffffffffffffffffffffffff1603611c6557611c6081611f1a565b611ca4565b8373ffffffffffffffffffffffffffffffffffffffff168573ffffffffffffffffffffffffffffffffffffffff1614611ca357611ca28582611f63565b5b5b600073ffffffffffffffffffffffffffffffffffffffff168473ffffffffffffffffffffffffffffffffffffffff1603611ce657611ce1816120d0565b611d25565b8473ffffffffffffffffffffffffffffffffffffffff168473ffffffffffffffffffffffffffffffffffffffff1614611d2457611d2384826121a1565b5b5b5050505050565b50505050565b6000611d538473ffffffffffffffffffffffffffffffffffffffff16612220565b15611eac578373ffffffffffffffffffffffffffffffffffffffff1663150b7a02611d7c61130f565b8786866040518563ffffffff1660e01b8152600401611d9e9493929190613c7e565b6020604051808303816000875af1925050508015611dda57506040513d601f19601f82011682018060405250810190611dd79190613cdf565b60015b611e5c573d8060008114611e0a576040519150601f19603f3d011682016040523d82523d6000602084013e611e0f565b606091505b506000815103611e54576040517f08c379a0000000000000000000000000000000000000000000000000000000008152600401611e4b90613a88565b60405180910390fd5b805181602001fd5b63150b7a0260e01b7bffffffffffffffffffffffffffffffffffffffffffffffffffffffff1916817bffffffffffffffffffffffffffffffffffffffffffffffffffffffff191614915050611eb1565b600190505b949350505050565b611ec38383612243565b611ed06000848484611d32565b611f0f576040517f08c379a0000000000000000000000000000000000000000000000000000000008152600401611f0690613a88565b60405180910390fd5b505050565b50505050565b6008805490506009600083815260200190815260200160002081905550600881908060018154018082558091505060019003906000526020600020016000909190919091505550565b60006001611f7084610b0f565b611f7a9190613d0c565b905060006007600084815260200190815260200160002054905081811461205f576000600660008673ffffffffffffffffffffffffffffffffffffffff1673ffffffffffffffffffffffffffffffffffffffff168152602001908152602001600020600084815260200190815260200160002054905080600660008773ffffffffffffffffffffffffffffffffffffffff1673ffffffffffffffffffffffffffffffffffffffff168152602001908152602001600020600084815260200190815260200160002081905550816007600083815260200190815260200160002081905550505b6007600084815260200190815260200160002060009055600660008573ffffffffffffffffffffffffffffffffffffffff1673ffffffffffffffffffffffffffffffffffffffff16815260200190815260200160002060008381526020019081526020016000206000905550505050565b600060016008805490506120e49190613d0c565b90506000600960008481526020019081526020016000205490506000600883815481106121145761211361346a565b5b9060005260206000200154905080600883815481106121365761213561346a565b5b90600052602060002001819055508160096000838152602001908152602001600020819055506009600085815260200190815260200160002060009055600880548061218557612184613d40565b5b6001900381819060005260206000200160009055905550505050565b60006121ac83610b0f565b905081600660008573ffffffffffffffffffffffffffffffffffffffff1673ffffffffffffffffffffffffffffffffffffffff168152602001908152602001600020600083815260200190815260200160002081905550806007600084815260200190815260200160002081905550505050565b6000808273ffffffffffffffffffffffffffffffffffffffff163b119050919050565b600073ffffffffffffffffffffffffffffffffffffffff168273ffffffffffffffffffffffffffffffffffffffff16036122b2576040517f08c379a00000000000000000000000000000000000000000000000000000000081526004016122a990613dbb565b60405180910390fd5b6122bb816113d0565b156122fb576040517f08c379a00000000000000000000000000000000000000000000000000000000081526004016122f290613e27565b60405180910390fd5b612309600083836001611bce565b612312816113d0565b15612352576040517f08c379a000000000000000000000000000000000000000000000000000000000815260040161234990613e27565b60405180910390fd5b6001600360008473ffffffffffffffffffffffffffffffffffffffff1673ffffffffffffffffffffffffffffffffffffffff16815260200190815260200160002060008282540192505081905550816002600083815260200190815260200160002060006101000a81548173ffffffffffffffffffffffffffffffffffffffff021916908373ffffffffffffffffffffffffffffffffffffffff160217905550808273ffffffffffffffffffffffffffffffffffffffff16600073ffffffffffffffffffffffffffffffffffffffff167fddf252ad1be2c89b69c2b068fc378daa952ba7f163c4a11628f55a4df523b3ef60405160405180910390a461245c600083836001611d2c565b5050565b6040518060a001604052806000600381111561247f5761247e61274d565b5b8152602001600081526020016000815260200160008152602001606081525090565b6000604051905090565b600080fd5b600080fd5b60007fffffffff0000000000000000000000000000000000000000000000000000000082169050919050565b6124ea816124b5565b81146124f557600080fd5b50565b600081359050612507816124e1565b92915050565b600060208284031215612523576125226124ab565b5b6000612531848285016124f8565b91505092915050565b60008115159050919050565b61254f8161253a565b82525050565b600060208201905061256a6000830184612546565b92915050565b600081519050919050565b600082825260208201905092915050565b60005b838110156125aa57808201518184015260208101905061258f565b60008484015250505050565b6000601f19601f8301169050919050565b60006125d282612570565b6125dc818561257b565b93506125ec81856020860161258c565b6125f5816125b6565b840191505092915050565b6000602082019050818103600083015261261a81846125c7565b905092915050565b6000819050919050565b61263581612622565b811461264057600080fd5b50565b6000813590506126528161262c565b92915050565b60006020828403121561266e5761266d6124ab565b5b600061267c84828501612643565b91505092915050565b600073ffffffffffffffffffffffffffffffffffffffff82169050919050565b60006126b082612685565b9050919050565b6126c0816126a5565b82525050565b60006020820190506126db60008301846126b7565b92915050565b6126ea816126a5565b81146126f557600080fd5b50565b600081359050612707816126e1565b92915050565b60008060408385031215612724576127236124ab565b5b6000612732858286016126f8565b925050602061274385828601612643565b9150509250929050565b7f4e487b7100000000000000000000000000000000000000000000000000000000600052602160045260246000fd5b6004811061278d5761278c61274d565b5b50565b600081905061279e8261277c565b919050565b60006127ae82612790565b9050919050565b6127be816127a3565b82525050565b6127cd81612622565b82525050565b600082825260208201905092915050565b60006127ef82612570565b6127f981856127d3565b935061280981856020860161258c565b612812816125b6565b840191505092915050565b600060a08301600083015161283560008601826127b5565b50602083015161284860208601826127c4565b50604083015161285b60408601826127c4565b50606083015161286e60608601826127c4565b506080830151848203608086015261288682826127e4565b9150508091505092915050565b600060208201905081810360008301526128ad818461281d565b905092915050565b600080fd5b600080fd5b7f4e487b7100000000000000000000000000000000000000000000000000000000600052604160045260246000fd5b6128f7826125b6565b810181811067ffffffffffffffff82111715612916576129156128bf565b5b80604052505050565b60006129296124a1565b905061293582826128ee565b919050565b600067ffffffffffffffff821115612955576129546128bf565b5b61295e826125b6565b9050602081019050919050565b82818337600083830152505050565b600061298d6129888461293a565b61291f565b9050828152602081018484840111156129a9576129a86128ba565b5b6129b484828561296b565b509392505050565b600082601f8301126129d1576129d06128b5565b5b81356129e184826020860161297a565b91505092915050565b60008060408385031215612a0157612a006124ab565b5b6000612a0f85828601612643565b925050602083013567ffffffffffffffff811115612a3057612a2f6124b0565b5b612a3c858286016129bc565b9150509250929050565b612a4f81612622565b82525050565b6000602082019050612a6a6000830184612a46565b92915050565b600080600060608486031215612a8957612a886124ab565b5b6000612a97868287016126f8565b9350506020612aa8868287016126f8565b9250506040612ab986828701612643565b9150509250925092565b600060208284031215612ad957612ad86124ab565b5b6000612ae7848285016126f8565b91505092915050565b600081519050919050565b600082825260208201905092915050565b6000819050602082019050919050565b6000612b2883836127c4565b60208301905092915050565b6000602082019050919050565b6000612b4c82612af0565b612b568185612afb565b9350612b6183612b0c565b8060005b83811015612b92578151612b798882612b1c565b9750612b8483612b34565b925050600181019050612b65565b5085935050505092915050565b60006020820190508181036000830152612bb98184612b41565b905092915050565b612bca8161253a565b8114612bd557600080fd5b50565b600081359050612be781612bc1565b92915050565b60008060408385031215612c0457612c036124ab565b5b6000612c12858286016126f8565b9250506020612c2385828601612bd8565b9150509250929050565b600067ffffffffffffffff821115612c4857612c476128bf565b5b612c51826125b6565b9050602081019050919050565b6000612c71612c6c84612c2d565b61291f565b905082815260208101848484011115612c8d57612c8c6128ba565b5b612c9884828561296b565b509392505050565b600082601f830112612cb557612cb46128b5565b5b8135612cc5848260208601612c5e565b91505092915050565b60008060008060808587031215612ce857612ce76124ab565b5b6000612cf6878288016126f8565b9450506020612d07878288016126f8565b9350506040612d1887828801612643565b925050606085013567ffffffffffffffff811115612d3957612d386124b0565b5b612d4587828801612ca0565b91505092959194509250565b60008060408385031215612d6857612d676124ab565b5b6000612d76858286016126f8565b9250506020612d87858286016126f8565b9150509250929050565b600060208284031215612da757612da66124ab565b5b600082013567ffffffffffffffff811115612dc557612dc46124b0565b5b612dd1848285016129bc565b91505092915050565b7f4e487b7100000000000000000000000000000000000000000000000000000000600052602260045260246000fd5b60006002820490506001821680612e2157607f821691505b602082108103612e3457612e33612dda565b5b50919050565b7f4552433732313a20617070726f76616c20746f2063757272656e74206f776e6560008201527f7200000000000000000000000000000000000000000000000000000000000000602082015250565b6000612e9660218361257b565b9150612ea182612e3a565b604082019050919050565b60006020820190508181036000830152612ec581612e89565b9050919050565b7f4552433732313a20617070726f76652063616c6c6572206973206e6f7420746f60008201527f6b656e206f776e6572206f7220617070726f76656420666f7220616c6c000000602082015250565b6000612f28603d8361257b565b9150612f3382612ecc565b604082019050919050565b60006020820190508181036000830152612f5781612f1b565b9050919050565b7f517565727920666f72206e6f6e6578697374656e7420746f6b656e0000000000600082015250565b6000612f94601b8361257b565b9150612f9f82612f5e565b602082019050919050565b60006020820190508181036000830152612fc381612f87565b9050919050565b7f55524920736574206f66206e6f6e6578697374656e7420746f6b656e00000000600082015250565b6000613000601c8361257b565b915061300b82612fca565b602082019050919050565b6000602082019050818103600083015261302f81612ff3565b9050919050565b60008190508160005260206000209050919050565b60006020601f8301049050919050565b600082821b905092915050565b6000600883026130987fffffffffffffffffffffffffffffffffffffffffffffffffffffffffffffffff8261305b565b6130a2868361305b565b95508019841693508086168417925050509392505050565b6000819050919050565b60006130df6130da6130d584612622565b6130ba565b612622565b9050919050565b6000819050919050565b6130f9836130c4565b61310d613105826130e6565b848454613068565b825550505050565b600090565b613122613115565b61312d8184846130f0565b505050565b5b818110156131515761314660008261311a565b600181019050613133565b5050565b601f8211156131965761316781613036565b6131708461304b565b8101602085101561317f578190505b61319361318b8561304b565b830182613132565b50505b505050565b600082821c905092915050565b60006131b96000198460080261319b565b1980831691505092915050565b60006131d283836131a8565b9150826002028217905092915050565b6131eb82612570565b67ffffffffffffffff811115613204576132036128bf565b5b61320e8254612e09565b613219828285613155565b600060209050601f83116001811461324c576000841561323a578287015190505b61324485826131c6565b8655506132ac565b601f19841661325a86613036565b60005b828110156132825784890151825560018201915060208501945060208101905061325d565b8683101561329f578489015161329b601f8916826131a8565b8355505b6001600288020188555050505b505050505050565b7f4552433732313a2063616c6c6572206973206e6f7420746f6b656e206f776e6560008201527f72206f7220617070726f76656400000000000000000000000000000000000000602082015250565b6000613310602d8361257b565b915061331b826132b4565b604082019050919050565b6000602082019050818103600083015261333f81613303565b9050919050565b7f455243373231456e756d657261626c653a206f776e657220696e646578206f7560008201527f74206f6620626f756e6473000000000000000000000000000000000000000000602082015250565b60006133a2602b8361257b565b91506133ad82613346565b604082019050919050565b600060208201905081810360008301526133d181613395565b9050919050565b7f455243373231456e756d657261626c653a20676c6f62616c20696e646578206f60008201527f7574206f6620626f756e64730000000000000000000000000000000000000000602082015250565b6000613434602c8361257b565b915061343f826133d8565b604082019050919050565b6000602082019050818103600083015261346381613427565b9050919050565b7f4e487b7100000000000000000000000000000000000000000000000000000000600052603260045260246000fd5b7f4552433732313a20696e76616c696420746f6b656e2049440000000000000000600082015250565b60006134cf60188361257b565b91506134da82613499565b602082019050919050565b600060208201905081810360008301526134fe816134c2565b9050919050565b7f4552433732313a2061646472657373207a65726f206973206e6f74206120766160008201527f6c6964206f776e65720000000000000000000000000000000000000000000000602082015250565b600061356160298361257b565b915061356c82613505565b604082019050919050565b6000602082019050818103600083015261359081613554565b9050919050565b7f4e487b7100000000000000000000000000000000000000000000000000000000600052601160045260246000fd5b60006135d182612622565b91507fffffffffffffffffffffffffffffffffffffffffffffffffffffffffffffffff820361360357613602613597565b5b600182019050919050565b7f55524920717565727920666f72206e6f6e6578697374656e7420746f6b656e00600082015250565b6000613644601f8361257b565b915061364f8261360e565b602082019050919050565b6000602082019050818103600083015261367381613637565b9050919050565b7f4f776e61626c653a206e6577206f776e657220697320746865207a65726f206160008201527f6464726573730000000000000000000000000000000000000000000000000000602082015250565b60006136d660268361257b565b91506136e18261367a565b604082019050919050565b60006020820190508181036000830152613705816136c9565b9050919050565b7f4e487b7100000000000000000000000000000000000000000000000000000000600052601260045260246000fd5b600061374682612622565b915061375183612622565b9250826137615761376061370c565b5b828206905092915050565b600061377782612622565b915061378283612622565b925082820261379081612622565b915082820484148315176137a7576137a6613597565b5b5092915050565b60006137b982612622565b91506137c483612622565b92508282019050808211156137dc576137db613597565b5b92915050565b6137eb816127a3565b82525050565b600060408201905061380660008301856137e2565b6138136020830184612a46565b9392505050565b7f4f776e61626c653a2063616c6c6572206973206e6f7420746865206f776e6572600082015250565b600061385060208361257b565b915061385b8261381a565b602082019050919050565b6000602082019050818103600083015261387f81613843565b9050919050565b7f4552433732313a207472616e736665722066726f6d20696e636f72726563742060008201527f6f776e6572000000000000000000000000000000000000000000000000000000602082015250565b60006138e260258361257b565b91506138ed82613886565b604082019050919050565b60006020820190508181036000830152613911816138d5565b9050919050565b7f4552433732313a207472616e7366657220746f20746865207a65726f2061646460008201527f7265737300000000000000000000000000000000000000000000000000000000602082015250565b600061397460248361257b565b915061397f82613918565b604082019050919050565b600060208201905081810360008301526139a381613967565b9050919050565b7f4552433732313a20617070726f766520746f2063616c6c657200000000000000600082015250565b60006139e060198361257b565b91506139eb826139aa565b602082019050919050565b60006020820190508181036000830152613a0f816139d3565b9050919050565b7f4552433732313a207472616e7366657220746f206e6f6e20455243373231526560008201527f63656976657220696d706c656d656e7465720000000000000000000000000000602082015250565b6000613a7260328361257b565b9150613a7d82613a16565b604082019050919050565b60006020820190508181036000830152613aa181613a65565b9050919050565b6000819050919050565b613ac3613abe82612622565b613aa8565b82525050565b60008160601b9050919050565b6000613ae182613ac9565b9050919050565b6000613af382613ad6565b9050919050565b613b0b613b06826126a5565b613ae8565b82525050565b600081905092915050565b6000613b2782612570565b613b318185613b11565b9350613b4181856020860161258c565b80840191505092915050565b6000613b598287613ab2565b602082019150613b698286613ab2565b602082019150613b798285613afa565b601482019150613b898284613b1c565b915081905095945050505050565b7f455243373231456e756d657261626c653a20636f6e736563757469766520747260008201527f616e7366657273206e6f7420737570706f727465640000000000000000000000602082015250565b6000613bf360358361257b565b9150613bfe82613b97565b604082019050919050565b60006020820190508181036000830152613c2281613be6565b9050919050565b600081519050919050565b600082825260208201905092915050565b6000613c5082613c29565b613c5a8185613c34565b9350613c6a81856020860161258c565b613c73816125b6565b840191505092915050565b6000608082019050613c9360008301876126b7565b613ca060208301866126b7565b613cad6040830185612a46565b8181036060830152613cbf8184613c45565b905095945050505050565b600081519050613cd9816124e1565b92915050565b600060208284031215613cf557613cf46124ab565b5b6000613d0384828501613cca565b91505092915050565b6000613d1782612622565b9150613d2283612622565b9250828203905081811115613d3a57613d39613597565b5b92915050565b7f4e487b7100000000000000000000000000000000000000000000000000000000600052603160045260246000fd5b7f4552433732313a206d696e7420746f20746865207a65726f2061646472657373600082015250565b6000613da560208361257b565b9150613db082613d6f565b602082019050919050565b60006020820190508181036000830152613dd481613d98565b9050919050565b7f4552433732313a20746f6b656e20616c7265616479206d696e74656400000000600082015250565b6000613e11601c8361257b565b9150613e1c82613ddb565b602082019050919050565b60006020820190508181036000830152613e4081613e04565b905091905056fea2646970667358221220df1d1965605e6c91916a3dab42b6dc840edd6c03dbba66df392d1956f595f9cf64736f6c63430008130033",
  "linkReferences": {},
  "deployedLinkReferences": {}
}