{
  "_format": "hh-sol-artifact-1",
  "contractName": "FishMarketplace",
  "sourceName": "contracts/FishMarketplace.sol",
  "abi": [
    {
      "inputs": [
        {
          "internalType": "address",
          "name": "_nftAddress",
          "type": "address"
        }
      ],
      "stateMutability": "nonpayable",
      "type": "constructor"
    },
    {
      "anonymous": false,
      "inputs": [
        {
          "indexed": false,
          "internalType": "uint256",
          "name": "oldFeePercentage",
          "type": "uint256"
        },
        {
          "indexed": false,
          "internalType": "uint256",
          "name": "newFeePercentage",
          "type": "uint256"
        }
      ],
      "name": "FeePercentageUpdated",
      "type": "event"
    },
    {
      "anonymous": false,
      "inputs": [
        {
          "indexed": true,
          "internalType": "address",
          "name": "seller",
          "type": "address"
        },
        {
          "indexed": true,
          "internalType": "uint256",
          "name": "tokenId",
          "type": "uint256"
        },
        {
          "indexed": false,
          "internalType": "uint256",
          "name": "price",
          "type": "uint256"
        }
      ],
      "name": "FishListed",
      "type": "event"
    },
    {
      "anonymous": false,
      "inputs": [
        {
          "indexed": true,
          "internalType": "address",
          "name": "seller",
          "type": "address"
        },
        {
          "indexed": true,
          "internalType": "uint256",
          "name": "tokenId",
          "type": "uint256"
        }
      ],
      "name": "FishListingCancelled",
      "type": "event"
    },
    {
      "anonymous": false,
      "inputs": [
        {
          "indexed": true,
          "internalType": "address",
          "name": "seller",
          "type": "address"
        },
        {
          "indexed": true,
          "internalType": "address",
          "name": "buyer",
          "type": "address"
        },
        {
          "indexed": true,
          "internalType": "uint256",
          "name": "tokenId",
          "type": "uint256"
        },
        {
          "indexed": false,
          "internalType": "uint256",
          "name": "price",
          "type": "uint256"
        }
      ],
      "name": "FishSold",
      "type": "event"
    },
    {
      "anonymous": false,
      "inputs": [
        {
          "indexed": true,
          "internalType": "address",
          "name": "previousOwner",
          "type": "address"
        },
        {
          "indexed": true,
          "internalType": "address",
          "name": "newOwner",
          "type": "address"
        }
      ],
      "name": "OwnershipTransferred",
      "type": "event"
    },
    {
      "inputs": [
        {
          "internalType": "uint256",
          "name": "tokenId",
          "type": "uint256"
        }
      ],
      "name": "buyFish",
      "outputs": [],
      "stateMutability": "payable",
      "type": "function"
    },
    {
      "inputs": [
        {
          "internalType": "uint256",
          "name": "tokenId",
          "type": "uint256"
        }
      ],
      "name": "cancelListing",
      "outputs": [],
      "stateMutability": "nonpayable",
      "type": "function"
    },
    {
      "inputs": [],
      "name": "feePercentage",
      "outputs": [
        {
          "internalType": "uint256",
          "name": "",
          "type": "uint256"
        }
      ],
      "stateMutability": "view",
      "type": "function"
    },
    {
      "inputs": [],
      "name": "getActiveListings",
      "outputs": [
        {
          "internalType": "uint256[]",
          "name": "",
          "type": "uint256[]"
        },
        {
          "internalType": "uint256[]",
          "name": "",
          "type": "uint256[]"
        }
      ],
      "stateMutability": "view",
      "type": "function"
    },
    {
      "inputs": [
        {
          "internalType": "uint256",
          "name": "tokenId",
          "type": "uint256"
        },
        {
          "internalType": "uint256",
          "name": "price",
          "type": "uint256"
        }
      ],
      "name": "listFish",
      "outputs": [],
      "stateMutability": "nonpayable",
      "type": "function"
    },
    {
      "inputs": [
        {
          "internalType": "uint256",
          "name": "",
          "type": "uint256"
        }
      ],
      "name": "listings",
      "outputs": [
        {
          "internalType": "address",
          "name": "seller",
          "type": "address"
        },
        {
          "internalType": "uint256",
          "name": "price",
          "type": "uint256"
        },
        {
          "internalType": "bool",
          "name": "active",
          "type": "bool"
        }
      ],
      "stateMutability": "view",
      "type": "function"
    },
    {
      "inputs": [],
      "name": "nftAddress",
      "outputs": [
        {
          "internalType": "address",
          "name": "",
          "type": "address"
        }
      ],
      "stateMutability": "view",
      "type": "function"
    },
    {
      "inputs": [],
      "name": "owner",
      "outputs": [
        {
          "internalType": "address",
          "name": "",
          "type": "address"
        }
      ],
      "stateMutability": "view",
      "type": "function"
    },
    {
      "inputs": [],
      "name": "renounceOwnership",
      "outputs": [],
      "stateMutability": "nonpayable",
      "type": "function"
    },
    {
      "inputs": [
        {
          "internalType": "address",
          "name": "newOwner",
          "type": "address"
        }
      ],
      "name": "transferOwnership",
      "outputs": [],
      "stateMutability": "nonpayable",
      "type": "function"
    },
    {
      "inputs": [
        {
          "internalType": "uint256",
          "name": "_feePercentage",
          "type": "uint256"
        }
      ],
      "name": "updateFeePercentage",
      "outputs": [],
      "stateMutability": "nonpayable",
      "type": "function"
    },
    {
      "inputs": [],
      "name": "withdrawFees",
      "outputs": [],
      "stateMutability": "nonpayable",
      "type": "function"
    }
  ],
  "bytecode": "0x608060405260fa6002553480156200001657600080fd5b506040516200223a3803806200223a83398181016040528101906200003c9190620001e4565b60016000819055506200006462000058620000ac60201b60201c565b620000b460201b60201c565b80600360006101000a81548173ffffffffffffffffffffffffffffffffffffffff021916908373ffffffffffffffffffffffffffffffffffffffff1602179055505062000216565b600033905090565b6000600160009054906101000a900473ffffffffffffffffffffffffffffffffffffffff16905081600160006101000a81548173ffffffffffffffffffffffffffffffffffffffff021916908373ffffffffffffffffffffffffffffffffffffffff1602179055508173ffffffffffffffffffffffffffffffffffffffff168173ffffffffffffffffffffffffffffffffffffffff167f8be0079c531659141344cd1fd0a4f28419497f9722a3daafe3b4186f6b6457e060405160405180910390a35050565b600080fd5b600073ffffffffffffffffffffffffffffffffffffffff82169050919050565b6000620001ac826200017f565b9050919050565b620001be816200019f565b8114620001ca57600080fd5b50565b600081519050620001de81620001b3565b92915050565b600060208284031215620001fd57620001fc6200017a565b5b60006200020d84828501620001cd565b91505092915050565b61201480620002266000396000f3fe6080604052600436106100a75760003560e01c806387c35bc01161006457806387c35bc01461017357806388a907cb1461019f5780638da5cb5b146101c8578063a001ecdd146101f3578063de74e57b1461021e578063f2fde38b1461025d576100a7565b80632c28fdf8146100ac578063305a67a8146100c8578063476343ee146100f15780635bf8633a146101085780636cad3fb014610133578063715018a61461015c575b600080fd5b6100c660048036038101906100c191906113d5565b610286565b005b3480156100d457600080fd5b506100ef60048036038101906100ea91906113d5565b6106a7565b005b3480156100fd57600080fd5b50610106610871565b005b34801561011457600080fd5b5061011d610978565b60405161012a9190611443565b60405180910390f35b34801561013f57600080fd5b5061015a600480360381019061015591906113d5565b61099e565b005b34801561016857600080fd5b50610171610a36565b005b34801561017f57600080fd5b50610188610a4a565b60405161019692919061151c565b60405180910390f35b3480156101ab57600080fd5b506101c660048036038101906101c19190611553565b610d21565b005b3480156101d457600080fd5b506101dd6110eb565b6040516101ea9190611443565b60405180910390f35b3480156101ff57600080fd5b50610208611115565b60405161021591906115a2565b60405180910390f35b34801561022a57600080fd5b50610245600480360381019061024091906113d5565b61111b565b604051610254939291906115d8565b60405180910390f35b34801561026957600080fd5b50610284600480360381019061027f919061163b565b611172565b005b61028e6111f5565b6000600460008381526020019081526020016000206040518060600160405290816000820160009054906101000a900473ffffffffffffffffffffffffffffffffffffffff1673ffffffffffffffffffffffffffffffffffffffff1673ffffffffffffffffffffffffffffffffffffffff168152602001600182015481526020016002820160009054906101000a900460ff1615151515815250509050806040015161036f576040517f08c379a0000000000000000000000000000000000000000000000000000000008152600401610366906116c5565b60405180910390fd5b80602001513410156103b6576040517f08c379a00000000000000000000000000000000000000000000000000000000081526004016103ad90611731565b60405180910390fd5b600061271060025483602001516103cd9190611780565b6103d791906117f1565b905060008183602001516103eb9190611822565b905060006004600086815260200190815260200160002060020160006101000a81548160ff021916908315150217905550600360009054906101000a900473ffffffffffffffffffffffffffffffffffffffff1673ffffffffffffffffffffffffffffffffffffffff166342842e0e846000015133876040518463ffffffff1660e01b815260040161047f93929190611856565b600060405180830381600087803b15801561049957600080fd5b505af11580156104ad573d6000803e3d6000fd5b505050506000836000015173ffffffffffffffffffffffffffffffffffffffff16826040516104db906118be565b60006040518083038185875af1925050503d8060008114610518576040519150601f19603f3d011682016040523d82523d6000602084013e61051d565b606091505b5050905080610561576040517f08c379a00000000000000000000000000000000000000000000000000000000081526004016105589061191f565b60405180910390fd5b836020015134111561062a5760003373ffffffffffffffffffffffffffffffffffffffff168560200151346105969190611822565b6040516105a2906118be565b60006040518083038185875af1925050503d80600081146105df576040519150601f19603f3d011682016040523d82523d6000602084013e6105e4565b606091505b5050905080610628576040517f08c379a000000000000000000000000000000000000000000000000000000000815260040161061f9061198b565b60405180910390fd5b505b843373ffffffffffffffffffffffffffffffffffffffff16856000015173ffffffffffffffffffffffffffffffffffffffff167f446829be76491b3865f20221fd6df0f940dd200fa0c87291ae12990db57ff2ed876020015160405161069091906115a2565b60405180910390a4505050506106a4611244565b50565b6000600460008381526020019081526020016000206040518060600160405290816000820160009054906101000a900473ffffffffffffffffffffffffffffffffffffffff1673ffffffffffffffffffffffffffffffffffffffff1673ffffffffffffffffffffffffffffffffffffffff168152602001600182015481526020016002820160009054906101000a900460ff16151515158152505090508060400151610788576040517f08c379a000000000000000000000000000000000000000000000000000000000815260040161077f906116c5565b60405180910390fd5b3373ffffffffffffffffffffffffffffffffffffffff16816000015173ffffffffffffffffffffffffffffffffffffffff16146107fa576040517f08c379a00000000000000000000000000000000000000000000000000000000081526004016107f1906119f7565b60405180910390fd5b60006004600084815260200190815260200160002060020160006101000a81548160ff021916908315150217905550813373ffffffffffffffffffffffffffffffffffffffff167fdbbe08fde1a76fe906f1c5a8a99663240746fbdc9bf1ef1e1d997bf44b02d51160405160405180910390a35050565b61087961124e565b6000479050600081116108c1576040517f08c379a00000000000000000000000000000000000000000000000000000000081526004016108b890611a63565b60405180910390fd5b60006108cb6110eb565b73ffffffffffffffffffffffffffffffffffffffff16826040516108ee906118be565b60006040518083038185875af1925050503d806000811461092b576040519150601f19603f3d011682016040523d82523d6000602084013e610930565b606091505b5050905080610974576040517f08c379a000000000000000000000000000000000000000000000000000000000815260040161096b90611acf565b60405180910390fd5b5050565b600360009054906101000a900473ffffffffffffffffffffffffffffffffffffffff1681565b6109a661124e565b6103e88111156109eb576040517f08c379a00000000000000000000000000000000000000000000000000000000081526004016109e290611b3b565b60405180910390fd5b60006002549050816002819055507fb27c12a91635e11c22bffa7bd8e0a8735da52b94aaefd7f249776c7590ba78948183604051610a2a929190611b5b565b60405180910390a15050565b610a3e61124e565b610a4860006112cc565b565b606080600080600190505b600360009054906101000a900473ffffffffffffffffffffffffffffffffffffffff1673ffffffffffffffffffffffffffffffffffffffff166318160ddd6040518163ffffffff1660e01b8152600401602060405180830381865afa158015610ac2573d6000803e3d6000fd5b505050506040513d601f19601f82011682018060405250810190610ae69190611b99565b8111610b37576004600082815260200190815260200160002060020160009054906101000a900460ff1615610b24578180610b2090611bc6565b9250505b8080610b2f90611bc6565b915050610a55565b5060008167ffffffffffffffff811115610b5457610b53611c0e565b5b604051908082528060200260200182016040528015610b825781602001602082028036833780820191505090505b50905060008267ffffffffffffffff811115610ba157610ba0611c0e565b5b604051908082528060200260200182016040528015610bcf5781602001602082028036833780820191505090505b509050600080600190505b600360009054906101000a900473ffffffffffffffffffffffffffffffffffffffff1673ffffffffffffffffffffffffffffffffffffffff166318160ddd6040518163ffffffff1660e01b8152600401602060405180830381865afa158015610c47573d6000803e3d6000fd5b505050506040513d601f19601f82011682018060405250810190610c6b9190611b99565b8111610d12576004600082815260200190815260200160002060020160009054906101000a900460ff1615610cff5780848381518110610cae57610cad611c3d565b5b6020026020010181815250506004600082815260200190815260200160002060010154838381518110610ce457610ce3611c3d565b5b6020026020010181815250508180610cfb90611bc6565b9250505b8080610d0a90611bc6565b915050610bda565b50828295509550505050509091565b6000600360009054906101000a900473ffffffffffffffffffffffffffffffffffffffff1690503373ffffffffffffffffffffffffffffffffffffffff168173ffffffffffffffffffffffffffffffffffffffff16636352211e856040518263ffffffff1660e01b8152600401610d9891906115a2565b602060405180830381865afa158015610db5573d6000803e3d6000fd5b505050506040513d601f19601f82011682018060405250810190610dd99190611c81565b73ffffffffffffffffffffffffffffffffffffffff1614610e2f576040517f08c379a0000000000000000000000000000000000000000000000000000000008152600401610e2690611cfa565b60405180910390fd5b60008211610e72576040517f08c379a0000000000000000000000000000000000000000000000000000000008152600401610e6990611d66565b60405180910390fd5b3073ffffffffffffffffffffffffffffffffffffffff168173ffffffffffffffffffffffffffffffffffffffff1663081812fc856040518263ffffffff1660e01b8152600401610ec291906115a2565b602060405180830381865afa158015610edf573d6000803e3d6000fd5b505050506040513d601f19601f82011682018060405250810190610f039190611c81565b73ffffffffffffffffffffffffffffffffffffffff161480610f9d57508073ffffffffffffffffffffffffffffffffffffffff1663e985e9c533306040518363ffffffff1660e01b8152600401610f5b929190611d86565b602060405180830381865afa158015610f78573d6000803e3d6000fd5b505050506040513d601f19601f82011682018060405250810190610f9c9190611ddb565b5b610fdc576040517f08c379a0000000000000000000000000000000000000000000000000000000008152600401610fd390611e54565b60405180910390fd5b60405180606001604052803373ffffffffffffffffffffffffffffffffffffffff168152602001838152602001600115158152506004600085815260200190815260200160002060008201518160000160006101000a81548173ffffffffffffffffffffffffffffffffffffffff021916908373ffffffffffffffffffffffffffffffffffffffff1602179055506020820151816001015560408201518160020160006101000a81548160ff021916908315150217905550905050823373ffffffffffffffffffffffffffffffffffffffff167fb3ebbf8d15829a3bfee02a685fe35eedb97b6b0223335631f10ebd1718c0ead7846040516110de91906115a2565b60405180910390a3505050565b6000600160009054906101000a900473ffffffffffffffffffffffffffffffffffffffff16905090565b60025481565b60046020528060005260406000206000915090508060000160009054906101000a900473ffffffffffffffffffffffffffffffffffffffff16908060010154908060020160009054906101000a900460ff16905083565b61117a61124e565b600073ffffffffffffffffffffffffffffffffffffffff168173ffffffffffffffffffffffffffffffffffffffff16036111e9576040517f08c379a00000000000000000000000000000000000000000000000000000000081526004016111e090611ee6565b60405180910390fd5b6111f2816112cc565b50565b60026000540361123a576040517f08c379a000000000000000000000000000000000000000000000000000000000815260040161123190611f52565b60405180910390fd5b6002600081905550565b6001600081905550565b611256611392565b73ffffffffffffffffffffffffffffffffffffffff166112746110eb565b73ffffffffffffffffffffffffffffffffffffffff16146112ca576040517f08c379a00000000000000000000000000000000000000000000000000000000081526004016112c190611fbe565b60405180910390fd5b565b6000600160009054906101000a900473ffffffffffffffffffffffffffffffffffffffff16905081600160006101000a81548173ffffffffffffffffffffffffffffffffffffffff021916908373ffffffffffffffffffffffffffffffffffffffff1602179055508173ffffffffffffffffffffffffffffffffffffffff168173ffffffffffffffffffffffffffffffffffffffff167f8be0079c531659141344cd1fd0a4f28419497f9722a3daafe3b4186f6b6457e060405160405180910390a35050565b600033905090565b600080fd5b6000819050919050565b6113b28161139f565b81146113bd57600080fd5b50565b6000813590506113cf816113a9565b92915050565b6000602082840312156113eb576113ea61139a565b5b60006113f9848285016113c0565b91505092915050565b600073ffffffffffffffffffffffffffffffffffffffff82169050919050565b600061142d82611402565b9050919050565b61143d81611422565b82525050565b60006020820190506114586000830184611434565b92915050565b600081519050919050565b600082825260208201905092915050565b6000819050602082019050919050565b6114938161139f565b82525050565b60006114a5838361148a565b60208301905092915050565b6000602082019050919050565b60006114c98261145e565b6114d38185611469565b93506114de8361147a565b8060005b8381101561150f5781516114f68882611499565b9750611501836114b1565b9250506001810190506114e2565b5085935050505092915050565b6000604082019050818103600083015261153681856114be565b9050818103602083015261154a81846114be565b90509392505050565b6000806040838503121561156a5761156961139a565b5b6000611578858286016113c0565b9250506020611589858286016113c0565b9150509250929050565b61159c8161139f565b82525050565b60006020820190506115b76000830184611593565b92915050565b60008115159050919050565b6115d2816115bd565b82525050565b60006060820190506115ed6000830186611434565b6115fa6020830185611593565b61160760408301846115c9565b949350505050565b61161881611422565b811461162357600080fd5b50565b6000813590506116358161160f565b92915050565b6000602082840312156116515761165061139a565b5b600061165f84828501611626565b91505092915050565b600082825260208201905092915050565b7f46697368206e6f74206c697374656420666f722073616c650000000000000000600082015250565b60006116af601883611668565b91506116ba82611679565b602082019050919050565b600060208201905081810360008301526116de816116a2565b9050919050565b7f496e73756666696369656e74207061796d656e74000000000000000000000000600082015250565b600061171b601483611668565b9150611726826116e5565b602082019050919050565b6000602082019050818103600083015261174a8161170e565b9050919050565b7f4e487b7100000000000000000000000000000000000000000000000000000000600052601160045260246000fd5b600061178b8261139f565b91506117968361139f565b92508282026117a48161139f565b915082820484148315176117bb576117ba611751565b5b5092915050565b7f4e487b7100000000000000000000000000000000000000000000000000000000600052601260045260246000fd5b60006117fc8261139f565b91506118078361139f565b925082611817576118166117c2565b5b828204905092915050565b600061182d8261139f565b91506118388361139f565b92508282039050818111156118505761184f611751565b5b92915050565b600060608201905061186b6000830186611434565b6118786020830185611434565b6118856040830184611593565b949350505050565b600081905092915050565b50565b60006118a860008361188d565b91506118b382611898565b600082019050919050565b60006118c98261189b565b9150819050919050565b7f5472616e7366657220746f2073656c6c6572206661696c656400000000000000600082015250565b6000611909601983611668565b9150611914826118d3565b602082019050919050565b60006020820190508181036000830152611938816118fc565b9050919050565b7f526566756e64206661696c656400000000000000000000000000000000000000600082015250565b6000611975600d83611668565b91506119808261193f565b602082019050919050565b600060208201905081810360008301526119a481611968565b9050919050565b7f4e6f74207468652073656c6c6572000000000000000000000000000000000000600082015250565b60006119e1600e83611668565b91506119ec826119ab565b602082019050919050565b60006020820190508181036000830152611a10816119d4565b9050919050565b7f4e6f206665657320746f20776974686472617700000000000000000000000000600082015250565b6000611a4d601383611668565b9150611a5882611a17565b602082019050919050565b60006020820190508181036000830152611a7c81611a40565b9050919050565b7f5769746864726177616c206661696c6564000000000000000000000000000000600082015250565b6000611ab9601183611668565b9150611ac482611a83565b602082019050919050565b60006020820190508181036000830152611ae881611aac565b9050919050565b7f46656520746f6f20686967680000000000000000000000000000000000000000600082015250565b6000611b25600c83611668565b9150611b3082611aef565b602082019050919050565b60006020820190508181036000830152611b5481611b18565b9050919050565b6000604082019050611b706000830185611593565b611b7d6020830184611593565b9392505050565b600081519050611b93816113a9565b92915050565b600060208284031215611baf57611bae61139a565b5b6000611bbd84828501611b84565b91505092915050565b6000611bd18261139f565b91507fffffffffffffffffffffffffffffffffffffffffffffffffffffffffffffffff8203611c0357611c02611751565b5b600182019050919050565b7f4e487b7100000000000000000000000000000000000000000000000000000000600052604160045260246000fd5b7f4e487b7100000000000000000000000000000000000000000000000000000000600052603260045260246000fd5b600081519050611c7b8161160f565b92915050565b600060208284031215611c9757611c9661139a565b5b6000611ca584828501611c6c565b91505092915050565b7f4e6f7420746865206f776e657200000000000000000000000000000000000000600082015250565b6000611ce4600d83611668565b9150611cef82611cae565b602082019050919050565b60006020820190508181036000830152611d1381611cd7565b9050919050565b7f5072696365206d7573742062652067726561746572207468616e207a65726f00600082015250565b6000611d50601f83611668565b9150611d5b82611d1a565b602082019050919050565b60006020820190508181036000830152611d7f81611d43565b9050919050565b6000604082019050611d9b6000830185611434565b611da86020830184611434565b9392505050565b611db8816115bd565b8114611dc357600080fd5b50565b600081519050611dd581611daf565b92915050565b600060208284031215611df157611df061139a565b5b6000611dff84828501611dc6565b91505092915050565b7f4d61726b6574706c616365206e6f7420617070726f7665640000000000000000600082015250565b6000611e3e601883611668565b9150611e4982611e08565b602082019050919050565b60006020820190508181036000830152611e6d81611e31565b9050919050565b7f4f776e61626c653a206e6577206f776e657220697320746865207a65726f206160008201527f6464726573730000000000000000000000000000000000000000000000000000602082015250565b6000611ed0602683611668565b9150611edb82611e74565b604082019050919050565b60006020820190508181036000830152611eff81611ec3565b9050919050565b7f5265656e7472616e637947756172643a207265656e7472616e742063616c6c00600082015250565b6000611f3c601f83611668565b9150611f4782611f06565b602082019050919050565b60006020820190508181036000830152611f6b81611f2f565b9050919050565b7f4f776e61626c653a2063616c6c6572206973206e6f7420746865206f776e6572600082015250565b6000611fa8602083611668565b9150611fb382611f72565b602082019050919050565b60006020820190508181036000830152611fd781611f9b565b905091905056fea2646970667358221220658d958f42e0f1d1875e3a3e65bcd9995cd98e331eee8a09d351e6eeaa9d7d1264736f6c63430008130033",
  "linkReferences": {},
  "deployedLinkReferences": {}
}